111223333ANDERSON JAMES    S000000000000250000001977100 ELM STR   ALBANY      NY
222334444BAKER    LINDA    S000000000000120000001977204 OAK AVE   SAN DIEGO   CA
333445555CALDWELL ROBERT   S000000000002800000011977500 PARK BLVD SACRAMENTO  CA
444556666DAVIS    PATRICIA S00000000000030000000197788 PINE ROAD  CHARLESTON  SC
555667777EDWARDS  THOMAS   S00000000000040000004197712 CEDAR LANE DAYTON      OH
666778888FOSTER   MARY     S000150000000280000001977300 MAPLE DR  SMITHFIELD  RI
777889999GARCIA   CARLOS   M00000000000060000000197742 BIRCH STR  MERIMACK    NH
888990000HARRIS   SUSAN    H0000000000002200000019777 WILLOW WAY  WESTLAKE    TX
999001111INGRAM   DAVID    M00000000000035000000197755 ASH COURT  BOSTON      MA